S0120000626F6172645F746573742E73726563EB
S214400000E8390020991140009511400095114000B4
S21440001095114000951140009511400000000000E9
S21440002000000000000000000000000095114000A5
S214400030951140000000000095114000A90A4000BC
S21440004095114000951140009511400095114000D3
S21440005095114000951140009511400095114000C3
S214400060951140009511400000000000990E400098
S214400070AD0E40009511400095114000951140008E
S2144000809511400095114000951140009511400093
S2144000909511400095114000951140009511400083
S2144000A09511400095114000951140009511400073
S2144000B09511400095114000951140000000000049
S2144000C000000000000000000000000000000000EB
S2144000D000000000000000000000000000000000DB
S2144000E000000000000000000000000000000000CB
S2144000F000000000000000000000000095114000D5
S21440010095114000951140000000000000000000DE
S214400110000000000000000000000000000000009A
S214400120000000000000000000000000000000008A
S214400130000000000000000000000000000000007A
S214400140000000000000000010B5054C237833B9CD
S214400150044B13B10448AFF300800123237010BD55
S2144001600409002000000000F0474000084B10B58E
S2144001701BB108490848AFF300800848036803B934
S21440018010BD074B002BFBD0BDE81040184700BF02
S2144001900000000008090020F0474000F0474000FB
S2144001A00000000038B505460C4603788B4209D05F
S2144001B011B10B1F052B05D868683A4B98476868FD
S2144001C0394B9847631E072B69D8DFE803F00B04CA
S2144001D012192735684F6868334B98476868334B21
S2144001E098475CE068682F4B98476868304B98475C
S2144001F055E068682D4B984768682D4B98474EE009
S214400200AA68530903F5001303F207735B0202F072
S2144002101F02012101FA02F21A6340E0AA6853095C
S21440022003F5001303F207735B0202F01F0201217D
S21440023001FA02F21A6332E0AB6803F01F010122B2
S2144002408A405B0903F5001303F207735B025A66A4
S214400250C3F890205A655A62C3F88020196FD2437B
S21440026011401967596F0A405A6718E0AB6803F0A7
S2144002701F0101228A405B0903F5001303F207734E
S2144002805B021A66C3F894205A655A62C3F8802007
S214400290196FD24311401967596F0A405A672C703C
S2144002A038BD00BF5911400049114000511140006F
S2144002B04111400070B504460E46054D2046A847FD
S2144002C00028FBD031462046024B984770BD00BF01
S2144002D0611140006911400008B5014B984708BDC0
S2144002E07D11400038B5184C4FF440532366C4F88F
S2144002F0903063656362C4F88030226F22F44052C7
S2144003002267626F22F44052626763604FF4E131C5
S2144003100E480F4DA8474FF4C0632366C4F890308C
S21440032063656362C4F88030226F22F4C06222673D
S214400330626F22F4C062626763604FF4E131054841
S214400340A847012038BD00BF000E0E400082004086
S2144003509D08400000C2004008B5014B984708BDC4
S214400360E5024000032822D8DFE800F0020A121A0D
S2144003700F4B4FF000525A634FF080721A6370472B
S2144003800B4B4FF000525A634FF080725A637047DF
S214400390074B4FF080721A634FF000521A63704753
S2144003A0034B4FF000521A634FF080725A63704707
S2144003B0000E0E4008B5144B4FF080721A61C3F819
S2144003C0A0201A634FF000521A61C3F8A0205A6367
S2144003D003F500734FF440621A66C3F890205A65DE
S2144003E05A62C3F88020196F21F440611967596F2B
S2144003F021F4406159675A604FF4E1310348044B99
S2144004009847012008BD00BF000E0E4000C20140C4
S2144004109D08400070B50646054D064C2846A04748
S2144004200028FBD031460248034B984770BD00BFBA
S21440043000C20140611140006911400008B5014604
S2144004400148024B984708BD00C201407D1140005C
S21440045008B5024B9847012008BD00BFB5034000D1
S214400460F0B583B004460E4600230193344B9842C1
S21440047009D11F46334D01A93846A8470028FAD16E
S214400480019B337019E0304B984209D11F462D4DE1
S21440049001A93846A8470028FAD1019B337019E0D5
S2144004A02A4B984209D11F46264D01A93846A847EF
S2144004B00028FAD1019B337019E0254B9C4209D1A4
S2144004C01F46204D01A93846A8470028FAD1019B6F
S2144004D0337019E01F4B9C4209D11F46194D01A9A4
S2144004E03846A8470028FAD1019B337019E01A4BCA
S2144004F09C4209D11D46134C01A92846A047002816
S214400500FAD1019B337018E0144B9C4209D11D462A
S2144005100C4C01A92846A0470028FAD1019B33700D
S2144005200BE00F4B9C4208D11D46064C01A92846BD
S214400530A0470028FAD1019B337003B0F0BD00BF3E
S21440054000C200407D1140000002024000420240CE
S2144005500082014000C20140008200400002044088
S2144005600042034070B50C46304B984208D11E46B8
S2144005702F4D21463046A8470028FAD1012070BDAD
S2144005802C4B984208D11E46294D21463046A84756
S2144005900028FAD1012070BD274B984208D11E464C
S2144005A0234D21463046A8470028FAD1012070BD89
S2144005B0224B984208D11E461D4D21463046A8473C
S2144005C00028FAD1012070BD1D4B984208D11E4626
S2144005D0174D21463046A8470028FAD1012070BD65
S2144005E0184B984208D11E46114D21463046A84722
S2144005F00028FAD1012070BD134B984208D11E4600
S2144006000B4D21463046A8470028FAD1012070BD40
S2144006100E4B984208D11E46054D21463046A84707
S2144006200028FAD1012070BD002070BD00C20040F5
S2144006306911400000020240004202400082014030
S21440064000C20140008200400002044000420340D5
S21440065030B587B00446734B1960734A10607348D0
S214400660734A10607348744A106000915A68019249
S2144006709A680292DB680393002304936F4B9C4274
S21440068015D16F4D28466F4B9847012128466E4B33
S214400690984705F500756D4A694628466C4B98475D
S2144006A028466C4B984728466B4B984731E06B4B37
S2144006B09C4215D16A4D2846624B984701212846F0
S2144006C0614B984705F50075604A69462846604B79
S2144006D0984728465F4B984728465F4B984731E0F7
S2144006E0604B9C4215D1604D2846564B9847012199
S2144006F02846554B984705F50075544A694628469E
S214400700534B98472846534B98472846524B984752
S21440071031E0564B9C4215D1554D2846494B98479B
S21440072001212846484B984705F50075474A6946D3
S2144007302846474B98472846464B98472846464BB8
S214400740984731E04B4B9C4215D14B4D28463D4B8C
S2144007509847012128463C4B984705F500753B4A8B
S214400760694628463A4B984728463A4B9847284683
S214400770394B984731E0414B9C4215D1404C20467E
S214400780304B9847012120462F4B984704F500747C
S2144007902E4A694620462E4B984720462D4B984772
S2144007A020462D4B984730E0364B9C4215D1364C70
S2144007B02046244B984701212046234B984704F572
S2144007C00074224A69462046214B98472046214BD2
S2144007D098472046204B984717E02C4B9C4214D114
S2144007E02B4C2046174B984701212046164B9847DE
S2144007F004F50074154A69462046154B984720462E
S214400800144B98472046144B9847224D2B6800219E
S2144008109868214CA0472B6800215868A04707B02D
S21440082030BD00BF88000020E0090020650540007C
S214400830DC09002061044000D809002000C20040C6
S21440084000C00040B10C40003D0E400000002707AD
S214400850ED1040004111400051114000000202409E
S2144008600000024000420240004002400082014038
S2144008700080014000C2014000C0014000820040AC
S2144008800080004000020440000004400042034054
S21440089000400340C80400204917400030B587B0E8
S2144008A004466A4B196000915A6801929A6802920F
S2144008B0DB68039300230493654B984215D1654D3E
S2144008C02846654B984701212846644B984705F5CE
S2144008D00075634A69462846624B98472846624BED
S2144008E098472846614B984731E0614B984215D16E
S2144008F0604D2846584B984701212846574B984705
S21440090005F50075564A69462846564B9847284688
S214400910554B98472846554B984731E0564B98429A
S21440092015D1564D28464C4B9847012128464B4BEF
S214400930984705F500754A4A69462846494B984700
S2144009402846494B98472846484B984731E04C4BF9
S2144009509C4215D14B4D28463F4B9847012128468F
S2144009603E4B984705F500753D4A694628463D4B3F
S214400970984728463C4B984728463C4B984731E09A
S214400980414B9C4215D1414D2846334B9847012157
S2144009902846324B984705F50075314A6946284641
S2144009A0304B98472846304B984728462F4B984719
S2144009B031E0374B9C4215D1364C2046264B984763
S2144009C001212046254B984704F50074244A694681
S2144009D02046244B98472046234B98472046234B97
S2144009E0984730E02C4B9C4215D12C4C20461A4B55
S2144009F0984701212046194B984704F50074184A39
S214400A0069462046174B98472046174B984720463E
S214400A10164B984717E0224B9C4214D1214C204657
S214400A200D4B9847012120460C4B984704F500741F
S214400A300B4A694620460B4B984720460A4B984738
S214400A4020460A4B984707B030BD00BF88000020BC
S214400A5000C2004000C00040B10C40003D0E4000C7
S214400A6000002707ED1040004111400051114000A2
S214400A7000020240000002400042024000400240A5
S214400A80008201400080014000C2014000C0014099
S214400A900082004000800040000204400000044005
S214400AA00042034000400340024A1368013313608B
S214400AB0704700BF20090020014B1868704700BFF0
S214400AC020090020034B19681A4613685B1A8342B4
S214400AD0FBD370472009002010B5A2B01848194B28
S214400AE098470020184B9847184CA0470028FCD041
S214400AF0174B9847174A184B9A62184CA04700283D
S214400B00FCD00020164B9847164B984716480D4B7E
S214400B109847164B1A68164B1344164A93420CD8FD
S214400B202023009302AB0F220E211348134CA047FC
S214400B30BDF848101248134B984722B010BD00BF6E
S214400B40000E270771134000290F40004D0F40004C
S214400B506D0F4000013F4D0E00040E40790F4000DF
S214400B60C10E400089124000000027079C0000206C
S214400B70C0D3BDF980C3C901000A0E400100002061
S214400B8010140E404910400090B92DE9F0410C4633
S214400B909046002A0FDD8F18084E094D30682146D2
S214400BA02B6898470134A742F8D14046BDE8F0810B
S214400BB04FF0FF3070470020BDE8F081E00900208C
S214400BC0D80900200138022815D82DE9F0410E46F4
S214400BD014469AB10D46DFF838800C4FD8F800001E
S214400BE015F8011B3B68984700280ADBA81B013C08
S214400BF0F4D1BDE8F0814FF0FF3070470020BDE8EB
S214400C00F0814FF0FF30BDE8F08100BFDC090020E6
S214400C10E009002038B54FF40044214B5C600B20BF
S214400C20204DA8470C20A8471F4B40221A61C3F806
S214400C30A0201A6304225A61C3F8A0205A66C3F85B
S214400C4090205A655A62C3F880201A6F22F0040238
S214400C501A675A6F22F004025A6702221A631A6110
S214400C60C3F8A020114A4FF4005111631161C2F835
S214400C70A01014631461C2F8A0404FF0C0521A6628
S214400C80C3F890205A655A62C3F88020196F114302
S214400C901967596F21F0C05159675A6038BD00BF77
S214400CA050140E40890F4000000E0E4000100E40BB
S214400CB0544B1B78FF2B00D1FEE700B583B0EFF313
S214400CC01083B3FA83F35B09019372B6BFF35F8F69
S214400CD000224D4B1A7001994A4A1378013313701B
S214400CE029B10122484B1A70BFF35F8F62B6474A5C
S214400CF090420DD10720464B98470720454B9847D2
S214400D0000210720444B98470720444B984775E0FE
S214400D10434A90420DD116203D4B984707203D4B05
S214400D209847002107203C4B984707203B4B984765
S214400D3064E03C4A90420DD11520354B9847072039
S214400D40344B984700210720334B98470720334BB6
S214400D50984753E0344A90420DD114202C4B984784
S214400D6007202C4B9847002107202B4B98470720FD
S214400D702A4B984742E02D4A90420DD11320244BEF
S214400D8098470620234B984700210620224B984739
S214400D900620224B984731E0254A90420DD10E203E
S214400DA01B4B984706201B4B9847002106201A4BA2
S214400DB098470620194B984720E01E4A90420DD18E
S214400DC00920134B98470620124B984700210620CF
S214400DD0114B98470620114B98470FE0164A904211
S214400DE00CD108200A4B984706200A4B984700210A
S214400DF00620094B98470620084B984703B05DF8F5
S214400E0004FB00BFD00900209800002000400340AB
S214400E10890F400035104000DD0F40002110400093
S214400E20000004400080004000C0014000800140B7
S214400E30004002400000024000C000400160704791
S214400E40C06C7047806C70472DE9F0410446884678
S214400E500E4B9847054620460D4B9847054013D005
S214400E600C4C04F160062368434508D1616829426A
S214400E7005D0E36840469847636825EA0305B442D0
S214400E8002D01034002DEED1BDE8F081410E400076
S214400E90450E40002409002008B50B210148024BAE
S214400EA0984708BD000E0E40490E400008B50C217C
S214400EB00148024B984708BD00100E40490E4000BE
S214400EC0184A136B23F0700318431063936E13F0A5
S214400ED0080F03D009E0013B03D11EE04FF4006346
S214400EE010498A6E12F0080FF5D00E4A136B23F0A5
S214400EF0030343F002031363906E10F0080004D01F
S214400F0000207047013B03D109E04FF400630549D8
S214400F108A6E12F0080FF5D0704701207047012006
S214400F20704700BF00040E40012806D1054A93686A
S214400F3043F0254343F480139360034A014B1A6001
S214400F40704700BF10140E40080000A5054B5B69B3
S214400F5013F0800F1DBF044B986EC0F3C0100020E6
S214400F60704700BF10140E4000040E400022014B94
S214400F709A62704700040E40024B986E00F00200E2
S214400F80704700BF00040E4032281ED81F280CD8D9
S214400F90114B9A6901238340934318D0012303FAE7
S214400FA000F00D4B18610020704720380A4BD3F8EC
S214400FB008210123834093430BD0012303FA00F01A
S214400FC0054BC3F800010020704701207047002001
S214400FD070470020704700BF00040E4041F00401F7
S214400FE00E4B00F1100243F822109B6E4FF48071B6
S214400FF0814013EA010004D000207047013B04D131
S21440100007E010B44FF40063044CA26E0A42F5D0D9
S21440101000E001205DF8044B704700BF00040E401E
S2144010204FF4807303FA00F0014B1860704700BF1E
S21440103000040E404FF4807303FA00F0014B5860F2
S214401040704700BF00040E40C269490201F4F051E7
S21440105022F4F05242F0B44343F480730B43C3612E
S214401060704700BF10B40C0194420FD91AE0416893
S21440107041F400214160120402F4E0221A43026265
S21440108000201CE001201AE0012018E0630803EB72
S214401090C202B2FBF4F2D3085C1E4FF6FE718C42DD
S2144010A0E9D9EFE7C9004B0803EBC202B2FBF1F205
S2144010B0D3085C1E4FF6FE718C42E5D8D7E75DF844
S2144010C0044B7047084BC0F8E4300023436043624B
S2144010D0836288230360242303604FF48073036095
S2144010E04FF40023036070470041535570B50546E2
S2144010F00C4616460F4B984700220F4B1A609CB181
S2144011003246216828460D4B9847024670B96168BA
S214401110A368194323691943E3680B4306490B60E8
S21440112069680B436B6002E0012200E00122104632
S21440113070BD00BFC51040009409002065104000F7
S21440114040230360704700BF80230360704700BFA2
S21440115010230360704700BF20230360704700BF22
S2144011604069C0F340007047436913F0020F1DBF4B
S214401170C1F30801C161002001207047436913F0A4
S214401180010F05D08369C3F308030B600020704746
S21440119001207047FEE700BF00B583B02C4B2D4AB8
S2144011A09A4203D02C4B2A4A9A4204D32B4B2C4AC1
S2144011B09A420FD31AE026492A4B5B1A23F00303C0
S2144011C00433244A134452F8040B41F8040B9A4261
S2144011D0F9D1EBE7244B254AD21A22F003021A44EF
S2144011E0043B002143F8041B9342FBD1204A22F0E3
S2144011F07F01204B9960EFF31083B3FA83F35B09CA
S214401200019372B6BFF35F8F00211B4B1970019894
S2144012101A490B6843F470030B60BFF34F8FBFF35C
S2144012206F8F28B10121144B1970BFF35F8F62B6E0
S21440123002F16042B2F5203F04D20E4A936843F072
S214401240005393600E4B98470E4B9847FEE700BFFF
S21440125000000020F047400004090020E809002074
S214401260040900200309002008090020EB0900209B
S2144012700000400000ED00E09800002088ED00E00F
S2144012803516400035144000314B1B6B03F003030A
S214401290012B0FD013B1022B29D042E02D4B5B69B6
S2144012A013F0800F14BF4FF400424FF4FA422A4B1B
S2144012B01A6036E0264B1B6A13F0807F03D0274A1D
S2144012C0254B1A602DE0264A234B1A60204B1B6A9A
S2144012D003F07003102B02D0202B04D021E0214ACB
S2144012E01D4B1A601DE0204A1B4B1A6019E0194B33
S2144012F05B6913F0800F14BF4FF400424FF4FA427C
S214401300154B1A60124B1B6B03F00303022B08D1DC
S2144013100F4B9B6A1049C3F30C420B6802FB033326
S2144013200B600B4B1B6B03F07003702B07D10A4A04
S21440133013680E49A1FB03135B0813607047044B08
S2144013401B6B0549C3F302120B68D3400B60704712
S21440135000040E4010140E409C000020001BB700F6
S21440136000127A000024F40000366E01ABAAAAAA46
S214401370124B984204D84FF08062114B1A60704767
S214401380104B984203D8104A0D4B1A6070470F4BCB
S214401390984203D80E4A0A4B1A6070470D4B984243
S2144013A003D80D4A064B1A6070470C4B984294BFC0
S2144013B04FF004220A4A024B1A607047FF2C310154
S2144013C0000A0E40FF59620200010004FF869303A4
S2144013D000020004FFB3C40400030004FFE0F50568
S2144013E000050004094B1B6813B9094A074B1A60ED
S2144013F0064B1B681A180749914204DB1046034AFD
S2144014001060184670474FF0FF307047980900202C
S214401410E8390020FC7F02204FF0FF30704700BFC5
S2144014204FF400534B600020704700BF01207047C8
S214401430002070472DE9F04F8DB05E4B98475E4BCD
S21440144098474FF4E1315D485D4B98475D4A5E49A9
S2144014505E485F4B98475F4B5F4A5A60F0215F4A51
S21440146082F8231000229A6007221A605C4B984745
S2144014705C4B98475C4C94E80F000CAD05E90F00B8
S21440148004AD103494E80F0085E80F004FF00109D2
S214401490DFF89C81554F0320554B98474846554C9E
S2144014A0A0477220544B98474846A0474846504B62
S2144014B09847C047824675E0052403A8B84780B9D8
S2144014C0039B722B0DD0A62300934C4B4C4A4D49A0
S2144014D04D483F4DA8479DF80C104C48A8474C48EF
S2144014E0A8474846434B9847013C14F0FF04E4D1D4
S2144014F0494604A8474CA04748463E4DA847622167
S2144015004548464B98474846A847022104A8A04766
S2144015100524DFF814B1424D03A95846A84768B9D8
S214401520B5230093354B364A36493748284EB047A0
S2144015309DF80C103B48B0473548B04748462D4BC1
S2144015409847013C14F0FF04E6D1494608A8314CC0
S214401550A0474846274DA847612133482F4B984718
S2144015604846A847022108A8A0470524DFF8A8B0A7
S2144015702B4D03A95846A84768B9C52300931F4B6F
S2144015801F4A20492048124EB0479DF80C10274865
S214401590B0471F48B0474846164B9847013C14F0A2
S2144015A0FF04E6D1C047CAEB0000B0F5FA7F83D30C
S2144015B071E700BFD90A4000150C400000420340C6
S2144015C051064000CC464000D8464000E446400025
S2144015D08516400010E000E0BBD4010000ED00E0BE
S2144015E05104400059034000AC4640003D044000D2
S2144015F065034000C50A40001504400017474000F8
S21440160020474000284740003047400044474000BD
S21440161050474000A501400000C20040B5024000CF
S214401620D9024000544740000082004060474000D6
S214401630B90A400070B50F4E0F4D761BB61018BF56
S214401640002405D0013455F8043B9847A642F9D10A
S2144016500A4E0B4D761B03F0B5F8B61018BF0024A3
S21440166006D0013455F8043B9847A642F9D170BDE0
S21440167070BD00BFD0474000D0474000D84740002C
S214401680D04740000FB400B5074983B004AB0868A4
S21440169053F8042B8168019300F042F903B05DF8DB
S2144016A004EB04B0704700BFC804002070B4840741
S2144016B046D0541E002A41D0CDB2034602E0621EF8
S2144016C0E4B3144603F8015B9A07F8D1032C2ED9ED
S2144016D0CDB245EA05250F2C45EA054519D903F153
S2144016E010022646103E0F2E42F8105C42F80C5C64
S2144016F042F8085C42F8045C02F11002F2D8A4F109
S214401700100222F00F0204F00F041032032C134490
S2144017100DD91E462246043A032A46F8045BFAD8F8
S214401720221F22F003020432134404F003042CB1B7
S214401730C9B21C4403F8011BA342FBD170BC7047DE
S21440174014460346C2E700BF00290CBF022200220F
S2144017504FF4806300F000B82DE9F043514C256803
S21440176083B004460F4690461E4615B1AB6B002B21
S21440177079D0B8F1020F04D0B8F1010F7FD8002E0F
S2144017807DDB2146284601F017F9216B41B104F173
S2144017904003994202D0284601F06CFA00232363A6
S2144017A0B4F90C300022A26162601A0654D423F4C5
S2144017B04A6323F00303B8F1020FA38139D001AB8B
S2144017C06A462146284601F0F3FCA3891843A081C7
S2144017D026B327B3AB6B002B4DD0009BB4F90C005F
S2144017E027609E421CBF40F40060A081B8F1010F04
S2144017F008BF40F0010083B208BFA08103F0080094
S21440180080B22761666118B313F001002FD0002024
S2144018107642A661A06003B0BDE8F083009E3046E5
S21440182001F03AFD074668B3A38943F08003A381DD
S214401830D0E7002004F1430243F0020300250121D3
S214401840A381A56022602261616103B0BDE8F08398
S214401850A06003B0BDE8F0832169284601F00AFA8B
S214401860B4F90C30A3E7284601F03AF981E7A660C0
S21440187003B0BDE8F083284601F032F9ADE74FF0FB
S214401880FF30E2E7DDF80090B14506D0484601F06B
S21440189003FD074608B14E46C6E7B4F90C304FF094
S2144018A0FF30C7E7C80400204B6E2DE9F0479C0484
S2144018B092462CD5936812683BB30F46804602F199
S2144018C0080919E96000B60817D0043D002401E075
S2144018D0A64210D03A4655F8041F404601F06AF931
S2144018E0431C04F10104F3D10023CAF80830CAF8B7
S2144018F00430BDE8F087DAF80830A3EB8603CAF870
S214401900083009F10809002BDBD10020ECE701F094
S21440191099FA0023CAF80830CAF80430BDE8F087C0
S2144019202DE9F04FABB01C460091904604930590CD
S21440193018B1836B002B00F0DE800098B0F90C10D5
S2144019408AB2950407D4436E41F4005223F4005300
S2144019508281436692B2110740F1B180009B1B69B9
S214401960002B00F0AC8002F01A020A2A00F0B58084
S21440197000230DF1680B02930F930E93CDF834B00D
S214401980DA4698F800304446FBB1252B02D11CE0DD
S214401990252B03D014F8013F002BF9D1C8EB0405E2
S2144019A09DB10E9B0F9ACAF8008001332A44072B3C
S2144019B0CAF804500F920E937BDD002A40F028852B
S2144019C0029B0E922B44DA4602932378002B00F0BB
S2144019D03E8400214FF000034FF0FF328DF82F3049
S2144019E004F101086378019208460E460C4608F159
S2144019F00108A3F12002582A00F29383DFE812F090
S214401A004603910391034E0391039103910391037F
S214401A109103910389026702910380006C0291034F
S214401A20C60159025902590259025902590259022D
S214401A305902590291039103910391039103910333
S214401A409103910391039103CB0191039103910379
S214401A50910391039103910391039103910314021F
S214401A6091039103910391039103EE029103910335
S214401A701103910391039103910391039103910301
S214401A8091039103910334038A03910391039103D5
S214401A9067038A03910391036C03910379039502CC
S214401AA08500E90291039B029103BA0291039103D8
S214401AB053030AF1080A029B2B44029385E70099D8
S214401AC0059800F061FE002840F05885009B9A89F2
S214401AD002F01A020A2A7FF44BAF0099B1F90E3091
S214401AE0002BFFF645AF23464246059800F016FE0B
S214401AF02BB0BDE8F08F00F0F3FF1EE7644204937E
S214401B0046F0040698F8003071E7302104988DF8C6
S214401B103010019906944FF0000378228DF82F304C
S214401B20002903468DF83120046803F104034FF082
S214401B30000546F00202C0F2258526F0800654EAEB
S214401B40050246F00206049340F0BF84B348019B6A
S214401B50002B40F01C8499460023019303935F4674
S214401B60019B039A9342B8BF13461D46B9F1000F36
S214401B7000D0013516F00203079318BF023516F061
S214401B808403089340F0F182069B5C1B002C40F3D4
S214401B90EC82102C40F35685DFF88492DDF838E06E
S214401BA00F9AD4461023C2467046A8464D46DDF8E6
S214401BB0149007E000F1020E0CF1080C0846103CA9
S214401BC0102C13DD411C103207290F92CCF8005020
S214401BD0CCF804300E91EDDD002A40F0B782103C80
S214401BE0102C10464FF0010EDC46EBDCA946704642
S214401BF04546D046E246224407280F92CAF800904F
S214401C00CAF804400E9000F375839DF82F300AF111
S214401C10080A00F1010E002B40F0B082079B002B13
S214401C2000F0C38202320CA90223BEF1070F0F92C6
S214401C30CDF838E08AE80A0040F37883002A40F07E
S214401C400A84089B802B4FF0010E1046DA4640F07F
S214401C50B082069B5C1B002C40F3AB82102CDFF856
S214401C60C49140F30B85D6461023C246A8464D463F
S214401C70DDF8149007E000F1020C0EF1080E08465D
S214401C80103C102C13DD411C103207290F92CEF861
S214401C900050CEF804300E91EDDD002A40F015835A
S214401CA0103C102C4FF0010C1046DE46EBDCA946EB
S214401CB04546D046F2462244BCF1070F0F92CAF87A
S214401CC00090CAF80440CDF838C000F3D283019B98
S214401CD003995C1A002C0AF1080A0CF1010E6046C2
S214401CE000F36D820399CAF800700A44BEF1070FEC
S214401CF00F92CAF80410CDF838E040F3CE82002A9E
S214401D0040F03A8370070E9238D5069B5C1B002C39
S214401D1034DDDA46102C40F3AB84DFF804910E999C
S214401D204F461026DDF8149006E0881C0AF1080A93
S214401D301946103C102C13DD4B1C1032072B0F920B
S214401D40CAF80070CAF804600E93EEDD002A40F030
S214401D508E82103C102C4FF001001146DA46EBDC28
S214401D60B946224407280F92CAF80090CAF80440A1
S214401D700E9040F39B82002A40F02584029B069AF0
S214401D80AA42ACBF9B185B19029399E246F08006C4
S214401D9098F800302BE60694002940F0AF8446F0D1
S214401DA01006B30640F112830499073121F007016B
S214401DB0D1E900230831049114461D46002A73F1E8
S214401DC00003C0F28683019B9DF82F90002BC0F243
S214401DD01A8354EA050326F0800600F0ED80002DB5
S214401DE008BF0A2CC0F0ED805F46204629460A22EE
S214401DF0002302F0CFFA303207F8012D204629465C
S214401E0000230A2202F0C6FA04460D4654EA0503A9
S214401E10EBD1C7EB0B030393A2E600BF9847400005
S214401E20B4474000744740000694002940F062845E
S214401E3046F0100616F0200300F0AE82049B0733EF
S214401E4023F007034FF000028DF82F20D3E900451A
S214401E5003F10802019B0492002BC0F2748154EAFD
S214401E60050326F0800640F06E81019B002B00F0B3
S214401E7030844FF00009002400255F46E20842EA1D
S214401E804572E90804F007030D461446303354EA19
S214401E90050207F8013DF1D1F407BAD5302BB8D08A
S214401EA030227B1E07F8012CC3EB0B0203921F4621
S214401EB056E6A3F13002002418F8013B04EB8404F4
S214401EC002EB4404A3F13002092AF5D991E598F8CB
S214401ED0003001212B208AE598F800302A2B08F1A3
S214401EE0010500F0DD83A3F13002092AA84698BF19
S214401EF0002500F2CE8318F8013B05EB850502EB82
S214401F004505A3F13002092AF5D945EAE572019262
S214401F106FE5049A14681346002C03F10403FFF699
S214401F20EDAD049398F8003061E50694002981D021
S214401F308DF82F007EE7049A069417684FF000034A
S214401F408DF82F30141D019B002F00F08683002B48
S214401F50C0F25F831A460021384601F061FC002833
S214401F6000F08F83C31B0393002304949DF82F90A7
S214401F700193F5E50694002940F0B98316F0200950
S214401F8035D116F0100303D116F0400940F02A83ED
S214401F90049A13461468019A8DF82F90002A03F18C
S214401FA004034FF00005C0F2328354EA050226F0DF
S214401FB0800604937FF413AF019B002B3FF4CCAD17
S214401FC000242AAF303407F8414DC7EB0B03039388
S214401FD0C6E546F0200698F8003008E50694002945
S214401FE040F06E8346F0100616F02009C9D0049BD8
S214401FF0073323F007034FF000028DF82F20D3E974
S214402000004503F10802019B0492002BC0F2F981BF
S21440201054EA050326F080064FF000097FF4DFAE51
S214402020CAE70694002940F05183B206AE4841D52F
S214402030049A073222F00702D2E9004502F108016D
S214402040049116F0010900F0778154EA050240F049
S21440205026824FF000038DF82F30019B002BC0F2F4
S214402060968126F0800672E5049A069413688DF8E9
S214402070403013464FF00001012504338DF82F10F1
S2144020800493039510AF0023019373E598F800304E
S21440209000287FF4ACAC01212020A8E446F00106DD
S2144020A098F80030A3E40694002940F00C83B2066A
S2144020B08E48BDD40499F7060A4600F19D81750600
S2144020C040F19A8104320C8804920025B9E746F024
S2144020D0400698F800308AE498F800306C2B03BF2E
S2144020E098F8013046F0200608F1010846F0100640
S2144020F07DE4002940F00983B40640F11C82049A2E
S21440210002991368CD170846043229460492C3E95B
S214402110000136E4069400293FF443AE8DF82F00C4
S2144021203FE60694002940F0ED82002B00F08F80B9
S21440213001258DF840304FF000038DF82F30039581
S21440214010AFA0E704934FF0000996E60DAA009959
S21440215009934846FFF7A8FB00287FD10E980F9AB0
S214402160099B00F1010EDC4629E50E980F9A00F116
S214402170010E9DF82F30002B3FF450AD01320DF18B
S2144021802F010123BEF1070F0F92CDF838E08AE801
S2144021900A0040F3BF80002A40F04E81079900298C
S2144021A040F0BE809E461046DA46089B802B3FF4A1
S2144021B050AD019B03995C1A002C7FF793AD102C11
S2144021C0DFF82C9125DDD4461023C246A8464D465E
S2144021D0DDF8149007E000F1020E0CF1080C0846FA
S2144021E0103C102C11DD411C103207290F92CCF800
S2144021F00050CCF804300E91EDDDD2B9103C102CD6
S2144022004FF0010E1046DC46EDDCA9464546D0466A
S214402210E2462244BEF1070F0F92CAF80090CAF871
S2144022200440CDF838E02EDC0AF1080A0EF1010E23
S21440223058E50DAA009901934846FFF735FB68B963
S2144022400E980F9A019B00F1010EDC46C8E70F9BE3
S21440225023B1059800990DAAFFF726FB009B9B89A2
S2144022605A0600F18B8102982BB0BDE8F08F0DAA7C
S21440227000994846FFF718FB0028EFD10E990F9AB1
S214402280481CDA4655E5002A40F0FB80039A1B922C
S21440229001230F921A970E93DA460AF1080A71073D
S2144022A004D5069B5C1B002C3FF734AD029B069979
S2144022B0A942ACBF5B185B190293002A40F0B3807A
S2144022C000230E93DA46FFF75CBB0DAA00990793EE
S2144022D04846FFF7E9FA0028C0D10E980F9A079BA8
S2144022E000F1010CDE46CBE48447400098474000AE
S2144022F074474000002A40F033819DF82F30002B71
S21440230000F0F58001230DF12F011A461B939E46DF
S2144023101A91DA4670460AF1080A0EF1010E7DE47B
S2144023200CA902229E461A911B92DA4670460AF182
S214402330080A0EF1010E38E7019B8DF82F90002B0E
S214402340C0F22A8154EA050326F080063FF4FFAB2C
S2144023505F46230904F00F0143EA05732A091C4629
S2144023601546435C07F8013D54EA0503F1D1C7EB37
S2144023700B030393FFF7F4BB0DAA00990598FFF7EC
S21440238093FA00287FF46AAF0F9ADA4687E74FF051
S214402390000900240025DBE716F0100200F0B280AA
S2144023A004998DF82F300A460C680199002902F1ED
S2144023B004024FF00005C0F2598154EA050126F0A8
S2144023C0800604923FF451AD994656E5F7060AD486
S2144023D0750608D50499B1F900400431E517224640
S2144023E02B460491EAE4049A146813460433E5172E
S2144023F0049322462B46E1E41468043204920025F6
S2144024001FE64FF0000954EA05037FF4E8ACD8E530
S2144024100DAA00990598FFF747FA00287FF41EAFEB
S214402420DA46FFF748BB0DAA00990598FFF73CFA35
S21440243000283FF445AF11E70DAA00990598FFF72D
S21440244033FA00287FF40AAF0E980F9A00F1010E77
S214402450DA46FFF7E3BB0DAA00990598FFF724FA82
S21440246000287FF4FBAE0E980F9A00F1010EDA4674
S2144024709BE6002A40F0D8804FF0010E1046DA4620
S21440248097E60DAA00990598FFF70EFA00287FF404
S214402490E5AE0E9B0F9A03F1010EDA4622E4302297
S2144024A08DF83020019A8DF83130002A4FF0000325
S2144024B08DF82F3046F00203C0F2CB8026F080061F
S2144024C046F002064FF0000942E74FF000099048F8
S2144024D03EE7019B64424FF02D0965EB4505002B16
S2144024E08DF82F90FFF67BAC26F0800677E4079BAE
S2144024F0002B72D00CAB02221A931B924FF0010EA7
S214402500DA4613E716F0400948D004998DF82F2094
S2144025100B460C880199002903F104034FF000058F
S214402520FFF610AE54EA050126F0800604933FF409
S2144025309CAC9146A1E4F0060AD4710608D5049AEC
S214402540136804320492BDF808201A80FFF719BABF
S214402550049A136804320492029A1A60FFF711BA7A
S2144025600DAA00990598FFF79FF900287FF476AEEC
S2144025700E980F9A00F1010EDA46FAE54FF0FF305A
S214402580FFF7B6BA6248164654EA050204934FF07F
S21440259000097FF4DDAEFCE6049BF5E7049A8DF86F
S2144025A02F9013461468019A002A03F104034FF053
S2144025B00005FFF6C7AD54EA050226F080060493F0
S2144025C07FF45BAC51E40DAA00990598FFF76CF9CF
S2144025D000287FF443AE0F9A68E610464FF0010E8F
S2144025E0DA46E6E504998DF82F300A460C880199BC
S2144025F0002902F104024FF000054EDB54EA0501C3
S21440260026F08006049299467FF4E9ABD4E404931E
S214402610F9E63846049401F0B3FC002303909DF895
S2144026202F900193FFF79CBA0DAA00990598FFF7E3
S2144026303BF900287FF412AE0E980F9A00F1010E77
S214402640DA46B6E50E980F9ADFF8CC900130FFF7E1
S214402650D2BA1E464FF000097AE6062B28BF06235C
S2144026600393049423EAE3752A4F0CE504926AE543
S2144026700E98DFF8A4900130FFF773BBF446FFF7DF
S2144026801ABB019B9DF82F90039304940190FFF78B
S21440269067BA00220192FFF7ACB904929946B2E6B7
S2144026A0049A136801930432002B049298F8013080
S2144026B0A846BFF69CA94FF0FF320192FFF797B9A4
S2144026C08DF82F008EE48DF82F00F0E48DF82F0063
S2144026D0ABE49946F30705D52AAF302307F8413DCA
S2144026E0FFF797BB019B03935F46FFF739BA8DF818
S2144026F02F0043E48DF82F00FFF79ABB8DF82F008C
S214402700FFF74DBB8DF82F000FE58DF82F00F3E453
S21440271098474000AC474000B4474000F0B50C46F0
S214402720ADF26C4D8989666EE589199621F00201F5
S214402730666AADF80E500025E769ADF80C100996AC
S21440274006951AAE4FF48065694600960496029543
S214402750059507970646FFF7E3F8051E07DB304664
S214402760694600F029F9002818BF4FF0FF35BDF83C
S2144027700C305B0603D5A38943F04003A38128466B
S2144027800DF26C4DF0BD00BF38B5304B1B680546AA
S2144027900C4613B19A6B002A38D0B4F90C2093B289
S2144027A018070CD52069A8B113F001021ED0636942
S2144027B000225B42A361A260F0B1002038BDD9067A
S2144027C03CD5580726D4206942F00803A3819BB223
S2144027D00028E9D103F42072B2F5007FE4D0284601
S2144027E0214600F015FDA3892069DDE7990758BF0B
S2144027F06269A2600028E0D1B4F90C301A06DDD533
S21440280043F04003A3814FF0FF3038BD184600F038
S21440281067F9C2E7216B51B104F14003994204D0F5
S214402820284600F027FAB4F90C200023236300233F
S2144028302069636022F024022060C5E742F040022F
S21440284009232B604FF0FF30A28138BDC80400201A
S214402850024B13B1024800F005B870470000000074
S214402860F52A4000002301461A46184601F09ABC55
S214402870B1F90C309AB22DE9F0410D461107804669
S2144028803CD46A6843F40063002AAB8173DDAC6ACB
S214402890002C4BD09BB203F48052002192B2D8F861
S2144028A00060C8F80010002A69D02A6D5F0705D579
S2144028B069682B6B521A0BB1EB6BD21A0023E9698D
S2144028C04046A047441C3CD0B5F90C302A692A60E3
S2144028D023F400630022AB81DB046A6049D4296B91
S2144028E0C8F8006011B305F14003994202D0404653
S2144028F000F0C0F900202863BDE8F0812E69AEB133
S2144029002C682E6090070CBF6B690023A41BAB603D
S2144029100AE0234632466F6AE9694046B8470028CF
S214402920A4EB0004064404DD002CF2DC0020BDE8E5
S214402930F081AB8943F04003AB814FF0FF30BDE8F8
S214402940F081D8F800201D2AF3D81A4BD34003F064
S214402950010383F00104002BEBD0B5F90C30296954
S214402960296023F40063D9046C60AB81B7D5002A94
S214402970B5D12865B3E7EA6B002A88DCD6E70123A1
S214402980E9694046A047431C024602D0AB89AC6A80
S2144029908CE7D8F80030002BF8D01D2B01D0162B32
S2144029A002D1C8F80060C1E7AB8943F04003AB8171
S2144029B0BDE8F0810100402010B5044682B008B161
S2144029C0836B53B1B1F90C0008B902B010BD204674
S2144029D002B0BDE81040FFF74BBF019100F080F811
S2144029E00199EFE7014900F0AFBB00BF6D424000E0
S2144029F02DE9F04F354B4568C3630024074600F584
S214402A003B7204230321C0F8E412C0F8E822C0F861
S214402A10E04283B02C606C60AC606C66EC812C61EC
S214402A206C61AC61AB81214605F15C000822FEF783
S214402A303DFEBE68DFF898B0DFF898A0DFF89890C3
S214402A40DFF89880C5F820B001230922C5F824A0F5
S214402A50C5F82890C5F82C80ED612146F381B281F7
S214402A6006F15C0034607460B4607466346174610E
S214402A70B46108220193FEF719FEFD68F661122044
S214402A800222C6F820B0C6F824A0C6F82890C6F899
S214402A902C802146A881EA812C606C60AC606C6614
S214402AA02C616C61AC6105F15C000822FEF7FEFD0E
S214402AB0019BED61C5F820B0C5F824A0C5F8289064
S214402AC0C5F82C80BB6303B0BDE8F08FE529400015
S214402AD0C93E4000ED3E4000293F4000493F40008F
S214402AE0836B03B17047FFF783BF00BF704700BFDB
S214402AF0704700BF38B5074D074C2C1BA41005D0B7
S214402B00013C55F8043D9847002CF9D1BDE83840C3
S214402B1001F062BEE8474000E44740002DE9F04738
S214402B2082B080468946144600F03CFB012833D0EC
S214402B3004F15C034A4601A9404601F0E5FAB0F1CB
S214402B40FF3F824621D088B39DF80460002508E008
S214402B5023685A1C22601E700135554526D201ABAB
S214402B605E5DA368013B002BA360F1DAA769BB4218
S214402B7031462246404601DB0A2EE9D101F06EFA84
S214402B80431CE9D102B0BDE8F087A38943F0400377
S214402B90A38102B0BDE8F08709F1FF33FE2BC7D80A
S214402BA05FFA89F682468DF80460CFE7484602B061
S214402BB0BDE8F087B2F90C3013F4005F0AD110B4C8
S214402BC0546E43F4005344F400545466938110BC4E
S214402BD0FFF7A4BFFFF7A2BFF8B5234F0C46064643
S214402BE000F06CFFBB685D6825F00305291B01F605
S214402BF0EF7121F47F6121F00F01A1F58054B4F507
S214402C00805F07DB0021304601F04CF9BB682B445F
S214402C10984204D0304600F053FF0020F8BD614291
S214402C20304601F03FF901300DD0104BBA681968B4
S214402C302D1B45F001053046091B5560196000F014
S214402C403FFF0120F8BD0021304601F02BF9BA685D
S214402C50831A0F2BDEDD064C0449246843F001033B
S214402C60001B53600860D5E7F0040020A809002048
S214402C70FC080020002945D02DE9F0410D4680464D
S214402C8000F01CFF55F8047C6A4927F00103A5F1C3
S214402C900804E2188E685068B24220F0030062D002
S214402CA0FE0750600BD455F8087CE41B01F1080E73
S214402CB0A56875453B446FD0E768EF60BD60151862
S214402CC06D68ED0742D543F001026260E350B3F50C
S214402CD0007F18D2DB085A1C4D6851F83270A76046
S214402CE001209B1000FA03F301EBC2001D43083895
S214402CF0E0604D6041F83240FC604046BDE8F0413F
S214402D0000F0DEBE70475A0A042A53D89A0902F1E8
S214402D1039077F0002F1380501EB870051F827207C
S214402D204449083890424DD0516821F003018B4207
S214402D3002D292689042F7D1D068E060A260846088
S214402D40D4604046BDE8F04100F0BABE95683A4FC0
S214402D50BD4203443FD0D068E86043F0010285603E
S214402D606260E350B3E7FF07034407D455F8082CE6
S214402D70A41A1344A068E268C26090602F4A1268A2
S214402D8043F00100934260608C60B6D32C4B4046C3
S214402D901968FFF721FFB0E711184968C90744D4FE
S214402DA09168D268CA60034443F001009160606055
S214402DB0E350A2E7142A17D802F15C077F0002F11D
S214402DC05B05A9E7AA104B68012505FA02F21343F2
S214402DD04B600246B1E743F001024C610C61E5608E
S214402DE0A5606260E35088E7542A06D81A0B02F1C1
S214402DF06F077F0002F16E058EE7B2F5AA7F06D810
S214402E00DA0B02F178077F0002F1770584E740F29B
S214402E105450824206D89A0C02F17D077F0002F198
S214402E207C0579E7FE277E2576E743F0010262605F
S214402E30E35062E7F0040020F8040020F808002081
S214402E40A40900209368002B76D02DE9F04F8B899B
S214402E5085B00C4619070190164629D522693AB323
S214402E6003F002081FFA88F0356800282FD04FF08C
S214402E700009B44FC846B246B84543464A4628BFFE
S214402E803B460198B8F1000F50D0E169666AB047FA
S214402E90002871DDDAF808301B1A8144C0EB0808B8
S214402EA0CAF80830002BE7D1002005B0BDE8F08F07
S214402EB021460198FFF768FC002840F03A81A38934
S214402EC0356803F002081FFA88F00028CFD113F0C7
S214402ED001095BD14F4602961FB39A05D4F8088085
S214402EE02CD54745C246C0F0A48013F4906F40F0FE
S214402EF0B18020685246494600F07CFDA0682368B1
S214402F00C8EB00005344A06023603846029A93689A
S214402F101B1A81443F1A9360002BC5D0A389002F0B
S214402F20DBD1D5F800906F680835D5E7D5F8009026
S214402F30D5F8048008359FE700207047206823694D
S214402F40984203D861698F4280F0B780B84528BF61
S214402F50B8464246494600F04DFDA3682268C8EB95
S214402F6003034244A3602260002B49D121460198C6
S214402F70FFF722FD002843D0B4F90C3043F040035D
S214402F804FF0FF30A38105B0BDE8F08F8046029039
S214402F9082468146B9F1000F2AD0029B002B4CD0C6
S214402FA0206823696269C845C34628BFCB46984215
S214402FB05F4604D9A36813449B4500F3908093452D
S214402FC020DB1346676AE16901985246B847071EF8
S214402FD0D2DDB8EB070823D0B368DB1BBA44C7EB97
S214402FE00909B360002B3FF45FAFB9F1000FD4D1AD
S214402FF00023D5F800A0D5F8049002930835C9E719
S214403000404683E75A46514600F0F4FCA2682368DF
S214403010CBEB02025B44B8EB0708A2602360DBD12F
S21440302021460198FFF7C8FC0028A5D1CDF80880B6
S214403030D2E72068B846BA465CE74A460A21504678
S21440304000F0EEFB00286FD001300123CAEB0008E9
S2144030500293A5E762692068216902EB4208C1EB4A
S214403060000A08EBD8780AF101004FEA68083844AD
S2144030704045424684BF804642465B0542D511469F
S214403080019800F011F98346002855D05246216930
S21440309000F016FCA38923F4906343F08003A381D9
S2144030A0CAEB08030BEB0A00C4F81480C4F810B04F
S2144030B02060A360B846BA461CE76FF00043BB42A8
S2144030C028BF3B464A4693FBF1F30198666A01FBEC
S2144030D003F3E169B04700283FF718AF4CE71A46BC
S2144030E05146039300F086FC2268039B01981A44DD
S2144030F022602146FFF760FC039B00287FF43CAF2C
S2144031001F4666E7019800F0DDFC83460028C7D1DD
S214403110019D21692846FFF7ADFDB4F90C300C221D
S21440312023F080032A6029E7012309F1010802936E
S21440313036E74FF0FF30B8E6019A0C231360B4F937
S2144031400C301BE700FCFF7F2DE9F84310F538777D
S2144031501FD0884606464FF000097D68BC68013D92
S21440316011D4A389012B05F1FF3508D9B4F90E30E7
S21440317001332146304602D0C04749EA00096B1C5D
S21440318004F16804EDD13F68002FE6D14846BDE81B
S214403190F883B9464846BDE8F88300BF0048704704
S2144031A0CC040020014B1868704700BFEC04002098
S2144031B070B50D46B1F90E10002990B014461E4663
S2144031C014DB01AA01F094F800280FDB029A02F4FF
S2144031D07042A2F50052B2FA82F252094FF480636E
S2144031E04FF400603260236010B070BDA88900F0D4
S2144031F0800082B2002030601AB14023236010B0B5
S21440320070BD4FF480631046236010B070BD00BFA1
S2144032108A8992070B4606D501F1430201211A60BE
S2144032201A6159617047F0B583B001AB6A460C46E7
S2144032300546FFF7BDFF00990646284600F034F8DD
S214403240B4F90C30D0B1019A124F0099EF6343F0B5
S2144032508003A3812060206161611AB93343A38152
S21440326003B0F0BD2846B4F90E1001F055F8B4F995
S2144032700C300028F2D043F00103EFE79A05EFD474
S21440328004F1430243F002030121A381226022613C
S2144032906161E5E7E5294000024B0146186800F009
S2144032A003B800BFC80400202DE9F04F01F10B051C
S2144032B0162D83B0064640F29F8035F0070500F194
S2144032C0BF80A94200F2BC8000F0F8FBB5F5FC7F59
S2144032D0C0F09C826B0A00F0BA80042B00F2838117
S2144032E0A80900F1390E4FEA4E033830C44F07EBB9
S2144032F08303A3F108015C68A14207D1ACE0002A31
S21440330080F2AC80E468A14200F0A680636823F0B7
S21440331003035A1B0F2AF2DDB9493C6901F1080E36
S214403320744500F0B381636823F003035A1B0F2AE9
S21440333000F39981002AC1F814E0C1F810E080F249
S2144033409E80B3F5007F80F06781DB0803F1010CB7
S21440335001229B1002FA03F34A6851F83C80C4F8F5
S214403360088001EBCC091A43A9F10803E3604A60E0
S21440337041F83C40C8F80C40831001249C409442DD
S21440338000F28A80144206D120F003006400144202
S21440339000F10400FAD007EBC009CC468046DCF8C2
S2144033A00C108C4507D173E1002A80F28181C968F0
S2144033B08C4500F06D814B6823F003035A1B0F2A9F
S2144033C0F2DD0C46D1F80CC054F8088F4B1945F086
S2144033D001054D6042F00101C8F80CC03046CCF8FB
S2144033E008807B613B61C3F80CE0C3F808E0596095
S2144033F09A5000F065FB1FE0102921D800F05EFBD4
S2144034001025062302207E4F07EB8303A3F1080214
S2144034105C68944200F045816368E168A56823F0E3
S2144034200303234430465A68E96042F001028D6047
S2144034305A6000F045FB0834204603B0BDE8F08FE4
S21440344000240C232046336003B0BDE8F08F802371
S2144034504FF0400E3F2049E770465DE72344E16861
S2144034605A68A56842F00102E96030468D605A60AD
S21440347000F026FB0834204603B0BDE8F08F234416
S21440348030465A6842F001025A6000F019FB083490
S214403490204603B0BDE8F08FBC68636823F003089D
S2144034A0A84504D3C5EB08030F2B00F38C80554B7F
S2144034B0DFF860911A68D9F8003001332A4404EBEB
S2144034C0080A00F0608102F580520F3222F47F62D3
S2144034D022F00F0211463046019200F0E3FCB0F1B4
S2144034E0FF3F8346019A00F05881824500F2FC80F7
S2144034F0454B1968DA451144196000F05381D9F8F4
S2144035000000DFF810E101301BBFCAEB0B0A514444
S214403510CEF800B019601BF0070100F01781C1F12A
S2144035200800C1F58051834408315A44C2F30B0267
S214403530C2EB010949463046019300F0B3FC431CF8
S214403540019B00F03F81CBEB00024A4442F001026F
S2144035501968C7F808B04944BC42CBF80420196043
S214403560DFF8A49016D0B8F10F0F40F2FD806268E5
S214403570A8F10C0323F00703E01802F001024FF015
S214403580050E1A430F2B6260C0F804E0C0F808E04E
S21440359000F21C811D4BBC681A68914288BF1960B6
S2144035A01B4B1A689142626888BF196022F003027A
S2144035B09542A2EB050301D80F2B04DC304600F001
S2144035C07FFA002438E7621943F0010345F001050D
S2144035D065603046BA60536000F072FA08342046A0
S2144035E003B0BDE8F08F142B71D9542B00F2A480A1
S2144035F0280B00F16F0E4FEA4E036E3076E600BFA2
S214403600F0040020A4090020A8090020A0090020FA
S2144036109C090020FC0800205A0A042A5ED9142A75
S21440362000F2B38002F15C0149005B3207EB810C8B
S21440363057F82110DFF8DC81ACF1080C8C4500F01F
S21440364088804A6822F00302934202D289688C45F9
S214403650F7D1D1F80CC07A68C4F80CC0A160CCF899
S2144036600840CC6088E6631942F0010745F0010542
S214403670656030464B610B61C3F80CE0C3F808E068
S2144036805F609A50083400F01BFAD5E64A6873E645
S21440369008F1010818F0030F0CF1080C7FF47FAE18
S2144036A030E0DC68A34208BF02303FF435AEB3E6F4
S2144036B00B440C465A68C96854F8085F42F0010249
S2144036C05A603046E9608D6000F0FAF9B4E603F1DE
S2144036D05C0E03F15B004FEA4E0307E69A0902F1DF
S2144036E0390149003832A1E7BC424A4B3FF400AFAB
S2144036F09C68626822F003025AE759F808399945EF
S21440370040F0828010F0030F00F1FF30F5D17B6867
S21440371023EA04037B6064009C423FF6BDAE002C67
S2144037203FF4BAAE1C4240467FF435AE64001C42BD
S21440373000F10400FAD02EE6B3F5AA7F18D8E80BBD
S21440374000F1780E4FEA4E037730CFE54FF48051C4
S214403750EBE60121D8F80430921001FA02F21A433F
S214403760C8F80420614677E70123CBF8043025E704
S21440377040F25452934220D8A80C00F17D0E4FEAF6
S2144037804E037C30B2E51032A4E6542A26D81A0BF3
S21440379002F16F0149006E3248E7BC68626822F069
S2144037A0030205E7CAF30B0000287FF4A8AE4244A4
S2144037B0BB6842F001025A60ECE6FE234FF07F0EF3
S2144037C07E2093E501224FF00009C1E604F108018E
S2144037D03046FFF74FFAD9F80010DBE6B2F5AA7F7D
S2144037E005D8DA0B02F17801490077321EE740F23D
S2144037F054518A4205D89A0C02F17D0149007C3228
S21440380014E7FE217E2211E77B6884E7E808431C24
S2144038105B00F8E5F0040020000000000000000017
S21440382001F0FF01102A2BDB10F0070F08D010F82C
S214403830013B013A8B422DD010F0070F42B3F6D130
S214403840F0B441EA012141EA014122F007047FF049
S21440385000070023F0E80256083C85EA010586EAA0
S214403860010685FA47F5A3FA87F586FA47F6A5FADC
S21440387087F68EB9EED1F0BC01F0FF0102F00702E8
S21440388032B110F8013B013A83EA010313B1F8D193
S2144038900020704701387047002D06BF3546033874
S2144038A0073815F0010F07D1013015F4807F02BFAD
S2144038B0013015F4C03F0130F0BC0138704700BFFE
S2144038C0844641EA000313F003036DD1403A41D3E6
S2144038D051F8043B40F8043B51F8043B40F8043BA5
S2144038E051F8043B40F8043B51F8043B40F8043B95
S2144038F051F8043B40F8043B51F8043B40F8043B85
S21440390051F8043B40F8043B51F8043B40F8043B74
S21440391051F8043B40F8043B51F8043B40F8043B64
S21440392051F8043B40F8043B51F8043B40F8043B54
S21440393051F8043B40F8043B51F8043B40F8043B44
S21440394051F8043B40F8043B51F8043B40F8043B34
S214403950403ABDD2303211D351F8043B40F8043BD4
S21440396051F8043B40F8043B51F8043B40F8043B14
S21440397051F8043B40F8043B103AEDD20C3205D3E4
S21440398051F8043B40F8043B043AF9D2043208D0DC
S214403990D2071CBF11F8013B00F8013B01D30B884E
S2144039A003806046704700BF082A13D38B078DD02C
S2144039B010F003038AD0C3F10403D21ADB071CBFFE
S2144039C011F8013B00F8013B80D331F8023B20F868
S2144039D0023B7BE7043AD9D3013A11F8013B00F8A1
S2144039E0013BF9D20B7803704B7843708B78837029
S2144039F0604670478842F0B50DD98B1898420AD277
S214403A008118002A51D09A1A13F8014D01F8014D39
S214403A109342F9D1F0BD0F2A48D941EA00039B07EB
S214403A2046D100F1100401F11003154653F8106C0E
S214403A3044F8106C53F80C6C44F80C6C53F8086C53
S214403A4044F8086C103D53F8046C44F8046C0F2D91
S214403A5003F1100304F11004E8D8A2F1100323F098
S214403A600F0302F00F0E1033BEF1030F1944034448
S214403A7021D91E1F0D467446043C55F8047B46F873
S214403A80047F032CF8D8AEF1040424F00304043475
S214403A902344214402F0030262B1013B0A4411F878
S214403AA0014B03F8014F8A42F9D1F0BD0346F3E7D4
S214403AB00346F2E7F0BD7246EEE700BF704700BF30
S214403AC0704700BF2DE9F04F174683B0002900F03D
S214403AD0C1800E46814607F10B05FFF7EFFF56F80B
S214403AE004EC162D2EF00304A6F1080840D8102248
S214403AF01546AF4241D8944275DAC94B996808EBEF
S214403B0004008842416800F0D98021F00103034454
S214403B105B68DB077DD51EF0010F35D03946484639
S214403B20FFF7C2FB0746E0B156F8043C23F001031A
S214403B304344A0F108029A4200F04481221F242AFE
S214403B4000F23181132A00F204810346324611689E
S214403B5019605168596092689A6031464846FFF746
S214403B6089F84846FFF7ACFF384603B0BDE8F08F0B
S214403B7025F00705002D2A46BBDA0C230020C9F89D
S214403B80003003B0BDE8F08F56F8083CC3EB080A97
S214403B90DAF8043023F0030C04EB0C039342BDDB4D
S214403BA05746DAF80C1057F8080F221F242AC1602F
S214403BB0886000F21781132A40F212813168CAF8F1
S214403BC008107168CAF80C101B2A00F22B810836C0
S214403BD00AF110023168116071685160B1689160F5
S214403BE03E461C46D046631B0F2B1DD8D8F80430E3
S214403BF003F0010323434444C8F80430636843F0A9
S214403C00010363604846FFF75BFF304603B0BDE8FC
S214403C10F08F21F003012144914221DBC368826882
S214403C200C46D3609A60DEE7D8F8042008EB05011E
S214403C3002F00102154343F001020B44C8F8045059
S214403C404A605A6842F0010208315A604846FFF717
S214403C5011F8D7E7114603B0BDE8F04FFFF724BB95
S214403C601EF0010F7FF45AAF56F8083CC3EB080A23
S214403C70DAF8043023F0030C01EB0C0E96458BDB90
S214403C80C36882685746D3609A6057F8081FDAF8C8
S214403C900C30CB60221F242A996000F29980132AA8
S214403CA062D93368CAF808307368CAF80C301B2AE1
S214403CB000F2A08008360AF1100356E021F0030B0C
S214403CC0A34405F11000834559DA1EF0010F7FF436
S214403CD025AF56F8081CC1EB080ADAF8041021F0A4
S214403CE0030CE34458453FF757AF5746DAF80C10F5
S214403CF057F8080F221F242AC160886000F2B4805B
S214403D00132A40F2A5803168CAF808107168CAF8CC
S214403D100C101B2A00F2AF8008360AF110023168F8
S214403D20116071685160B16891600AEB0501C5EB9E
S214403D300B0242F0010299604A60DAF8043003F060
S214403D4001031D434846CAF80450FFF7B9FE3846FB
S214403D505CE733680360736843601B2A27D800F12A
S214403D60080306F10802F2E63B4632681A607268BB
S214403D705A60B2689A603E467446D04633E708EBCF
S214403D800501C5EB0B0B4BF0010299604A6056F8F3
S214403D90043C03F001031D43484646F8045CFFF725
S214403DA08FFE304632E73146FFF724FED5E6B3684D
S214403DB08360F368C360242A28D000F1100306F11C
S214403DC01002C4E650F8043C23F003031C440AE700
S214403DD0314638467446D046FFF70CFE3E4602E76C
S214403DE03A46F7E6314638461C46D046FFF702FECE
S214403DF03E46F8E6B368CAF81030F368CAF814309E
S214403E00242A1BD010360AF11803AEE73369036143
S214403E107369436106F1180200F1180397E600BF84
S214403E20F0040020B168CAF81010F168CAF81410FF
S214403E30242A0FD010360AF11802CBE63369CAF8A6
S214403E4018307369CAF81C3018360AF120038CE71C
S214403E503A4664E73269CAF818207269CAF81C20E4
S214403E6018360AF12002B5E6314638460193FFF788
S214403E70C1FD019B59E7B168CAF81010F168CAF84D
S214403E801410242A03D010360AF1180247E7326984
S214403E90CAF818207269CAF81C2018360AF120029F
S214403EA03DE700BF38B5074C00230546084623606B
S214403EB0FDF798FA431C00D038BD2368002BFBD092
S214403EC02B6038BDE409002010B50C46B1F90E1041
S214403ED000F04AFA002803DB236D0344236510BD37
S214403EE0A38923F48053A38110BD00BF2DE9F04180
S214403EF01646B1F90C201F46D3050C46054607D595
S214403F0000220223B1F90E1000F018FAB4F90C2082
S214403F10B4F90E1022F48052A2813B46324628461F
S214403F20BDE8F04100F028B910B50C46B1F90E10C6
S214403F3000F004FAA389421C0EBF23F4805343F4D6
S214403F4080532065A38110BDB1F90E1000F07CB9F6
S214403F50000000000000000000000000000000001C
S214403F60000000000000000000000000000000000C
S214403F7000000000000000000000000000000000FC
S214403F8090F800F06DE9024520F007016FF0000C54
S214403F9010F0070491F820F040F049804FF00004FC
S214403FA06FF00700D1E9002391F840F000F10800D7
S214403FB082FA4CF2A4FA8CF283FA4CF3A2FA8CF30F
S214403FC04BBBD1E9022382FA4CF200F10800A4FA76
S214403FD08CF283FA4CF3A2FA8CF3E3B9D1E90423CA
S214403FE082FA4CF200F10800A4FA8CF283FA4CF301
S214403FF0A2FA8CF37BB9D1E9062301F1200182FABB
S2144040004CF200F10800A4FA8CF283FA4CF3A2FAC0
S2144040108CF3002BC6D0002A04BF04301A4612BACE
S214404020B2FA82F2FDE8024500EBD2007047D1E9D1
S214404030002304F00305C4F100004FEAC50514F060
S214404040040F91F840F00CFA05F562EA05021CBF31
S21440405063EA050362464FF00004A9E7F8B50E464A
S2144040601446074610B1836B002B4AD0B4F90C2097
S214404070A369A36091B2080738D52369002B35D0D1
S2144040808904F5B215D522686169D31A8B421CDAC9
S2144040900133A168501C0139A16020601670626926
S2144040A09A421AD0A389DB0701D50A2D15D0284697
S2144040B0F8BD616E42F4005221F40051A28122689C
S2144040C061666169D31A8B42E2DB21463846FEF7C9
S2144040D073FC40B922680123DBE721463846FEF7E9
S2144040E06BFC0028E3D04FF0FF30F8BD2146384641
S2144040F0FEF74AFB0028F6D1B4F90C20236991B2AA
S214404100BEE7FEF7EDFCB1E72DE9F041054686B087
S2144041101E460C46A1B1104B1746D3F80080FFF759
S2144041203DF8009603463A4621462846C047431C7B
S21440413003D100228A2332602B6006B0BDE8F081AE
S214404140054B1F68FFF72AF800960346224603A948
S2144041502846B847EBE700BF0009002021B1FF2AF8
S21440416004D80A7001207047084670478A230360C7
S2144041704FF0FF30704700BF70B50D46084C1146F3
S21440418006461A46284600232360FCF71BFD431CC0
S21440419000D070BD2368002BFBD0336070BD00BFDD
S2144041A0E40900202DE9F047254C2568D5F848411C
S2144041B00646884692469946C4B360681F2817DC70
S2144041C0431C76B104EB80050122C5F888A0D4F8DC
S2144041D0881182401143022EC4F88811C5F8089110
S2144041E01ED00230636044F820800020BDE8F0878F
S2144041F0144B03B34FF4C870FFF74EF80446D0B1E3
S214404200D5F84831002780E88800C5F84841384648
S2144042100123C4F88871C4F88C71002EE1D0D1E730
S214404220D4F88C110A43C4F88C21DAE705F5A67455
S214404230C5F84841C1E74FF0FF30BDE8F08700BF02
S214404240704740009932400038B5074C0023054679
S21440425008462360FDF7E0F8431C00D038BD2368CD
S214404260002BFBD02B6038BDE409002000293DD050
S21440427070B505460C4608B1836B7BB3B4F90C3079
S2144042800BB9002070BD21462846FEF7F1FAE36AD6
S214404290064633B1E169284698470028B8BF4FF034
S2144042A0FF36A3891B061CD4216B41B104F14003A1
S2144042B0994202D02846FEF7DDFC00232363616C5A
S2144042C021B12846FEF7D6FC00236364FEF70EFCB9
S2144042D00023A381FEF70CFC304670BDFEF700FCC1
S2144042E0CCE721692846FEF7C5FCDDE7002070478D
S2144042F038B50B46074C0546114618460023236042
S214404300FDF78EF8431C00D038BD2368002BFBD049
S2144043102B6038BDE409002038B5074C002305461D
S21440432008462360FDF782F8431C00D038BD23685A
S214404330002BFBD02B6038BDE409002070B50D463D
S214404340084C114606461A46284600232360FDF7C9
S2144043506FF8431C00D070BD2368002BFBD0336041
S21440436070BD00BFE409002070B50D46084C1146EC
S21440437006461A46284600232360FCF705FC431CE5
S21440438000D070BD2368002BFBD0336070BD00BFEB
S214404390E409002053B94AB9002908BF00281CBFC9
S2144043A04FF0FF314FF0FF3000F07EB9ADF1080C12
S2144043B06DE904CE00F006F8DDF804E0DDE90223FE
S2144043C004B070472DE9F0478C460E460446089DDB
S2144043D0002B50D18A4217466CD9B2FA82FEBEF103
S2144043E0000F0BD0CEF1200420FA04F401FA0EF6AA
S2144043F044EA060C02FA0EF700FA0EF44FEA1749A2
S214404400220CBCFBF9F01FFA87F809FB10C642EAFB
S214404410064600FB08F3B34209D9F61900F1FF320D
S21440442080F02281B34240F21F8102383E44F61AA1
S214404430A2B2B6FBF9F309FB136642EA064403FB55
S21440444008F8A04509D9E41903F1FF3280F00A8143
S214404450A04540F20781023B3C44C8EB040443EAD3
S21440446000400021002D62D024FA0EF400232C6078
S2144044706B60BDE8F0878B4207D9002D55D00021F0
S21440448085E841000846BDE8F087B3FA83F1002985
S21440449040F09080B34202D3824200F2F880841A01
S2144044A066EB03060120B446002D40D085E8101088
S2144044B0BDE8F08712B90127B7FBF2F7B7FA87FED7
S2144044C0BEF1000F35D1F31B4FEA17481FFA87FCA1
S2144044D00121B3FBF8F0220C08FB103642EA0646F0
S2144044E00CFB00F3B34207D9F61900F1FF3202D2B3
S2144044F0B34200F2CE801046F61AA2B2B6FBF8F3EC
S21440450008FB136642EA06440CFB03FCA44507D9A5
S214404510E41903F1FF3202D2A44500F2B5801346F7
S214404520CCEB040443EA00409CE729462846BDE815
S214404530F087CEF1200106FA0EF307FA0EF720FABE
S21440454001F94FEA1748CE4049EA0309B6FBF8FAA4
S2144045504FEA194408FB1A661FFA87FC44EA0643EA
S2144045600AFB0CF29A4200FA0EF40AD9DB190AF159
S214404570FF3180F087809A4240F28480AAF1020A96
S2144045803B449B1A1FFA89F9B3FBF8F108FB113339
S21440459049EA034301FB0CF69E4207D9DB1901F1B9
S2144045A0FF326BD29E4269D902393B449B1B41EA9B
S2144045B00A418EE7C1F1200E22FA0EF48B402343C7
S2144045C020FA0EF706FA01F44FEA134C26FA0EF6D6
S2144045D03C43B6FBFCF9270C0CFB19661FFA83F824
S2144045E047EA064609FB08F7B74202FA01F200FA24
S2144045F001FA08D9F61809F1FF3041D2B7423FD93F
S214404600A9F102091E44F61BA0B2B6FBFCF40CFB53
S214404610146640EA064704FB08F8B84507D9FF1871
S21440462004F1FF3028D2B84526D9023C1F4444EA5C
S2144046300940C8EB0707A0FB02894F4544464E4653
S21440464014D329D065B3BAEB040367EB060707FA21
S2144046500EFECB40CF404EEA030385E8880000219B
S214404660BDE8F0871346F8E61046E0E6B8EB0204ED
S21440467069EB03060138E5E70446D8E7114695E7B7
S2144046808146C0E78A467CE7023B3C4448E708460A
S2144046900AE702383E442FE7C245E7D33E46D1E715
S2144046A02946BDE8F08700BF704700BF0000000005
S2144046B0008200400D0000000000000000000000E6
S2144046C000C200400A0000000000000032303A32CB
S2144046D0323A3038000000004175672020322032E0
S2144046E0303136000A0D094669726D776172652071
S2144046F0506F7070792D636F6D206275696C742091
S2144047006F6E2025732061742025730A0D0000000B
S2144047102E2E2F7372632F6D61696E2E630000001C
S2144047205B494E464F5D09004D61696E00000000D2
S2144047305B25735D092025732025733A25643A0965
S2144047400000000052533438353A202563000000FC
S2144047500A0D00005054505F413A20256300000087
S2144047605054505F423A202563000000430000004A
S214404770A0000020303030303030303030303030F4
S2144047803030303030313233343536373839414294
S2144047904344454600000000303132333435363726
S2144047A0383961626364656600000000286E756C87
S2144047B06C2900002020202020202020202020209F
S2144047C020202020F8B500BFF8BC08BC9E467047A5
S2144047D0512840006D014000F8B500BFF8BC08BC49
S20C4047E09E4670474901400067
S20C4047E8DCFBFF7F010000002E
S2144047F070B483B0069E43B31C46036843F48033CC
S2144048000360C9B241F0B441416083680193019BA3
S21440481013F00103F9D14EB1214604EB86060D4C48
S21440482054F8045F41F8045BB142F9D1D2B242F089
S214404830B442426082680192019A12F0010FF9D0A8
S214404840026822F48032026000E00223184603B079
S21440485070BC7047FCFF3F000160704782B041600B
S21440486083680193019B13F0010FF9D0019800F083
S2144048700E0002B0704700BF00000000C0000000FD
S21440488000080000000000000100000000127A004E
S214404890000000008C030020F40300205C0400208D
S2144048A000000000000000000000000000000000C3
S2144048B000000000000000000000000000000000B3
S2144048C0000000006C4740000000000000000000B0
S2144048D00000000000000000000000000000000093
S2144048E00000000000000000000000000000000083
S2144048F00000000000000000000000000000000073
S2144049000000000000000000000000000000000062
S2144049100000000000000000000000000000000052
S2144049200000000000000000000000000000000042
S2144049300000000000000000010000000000000031
S2144049400E33CDAB34126DE6ECDE05000B000000F6
S2144049500000000000000000000000000000000012
S2144049600000000000000000000000000000000002
S21440497000000000000000000000000000000000F2
S21440498000000000000000000000000000000000E2
S214404CB00000000000000000A000002041534349CF
S214404CC04900000000000000000000000000000056
S214404CD0000000000000000000000000010000008E
S214404CE00000000000000000F0040020F004002057
S214404CF0F8040020F80400200005002000050020ED
S214404D00080500200805002010050020100500209A
S214404D10180500201805002020050020200500204A
S214404D2028050020280500203005002030050020FA
S214404D3038050020380500204005002040050020AA
S214404D40480500204805002050050020500500205A
S214404D50580500205805002060050020600500200A
S214404D6068050020680500207005002070050020BA
S214404D70780500207805002080050020800500206A
S214404D80880500208805002090050020900500201A
S214404D909805002098050020A0050020A0050020CA
S214404DA0A8050020A8050020B0050020B00500207A
S214404DB0B8050020B8050020C0050020C00500202A
S214404DC0C8050020C8050020D0050020D0050020DA
S214404DD0D8050020D8050020E0050020E00500208A
S214404DE0E8050020E8050020F0050020F00500203A
S214404DF0F8050020F80500200006002000060020E8
S214404E000806002008060020100600201006002095
S214404E101806002018060020200600202006002045
S214404E2028060020280600203006002030060020F5
S214404E3038060020380600204006002040060020A5
S214404E404806002048060020500600205006002055
S214404E505806002058060020600600206006002005
S214404E6068060020680600207006002070060020B5
S214404E707806002078060020800600208006002065
S214404E808806002088060020900600209006002015
S214404E909806002098060020A0060020A0060020C5
S214404EA0A8060020A8060020B0060020B006002075
S214404EB0B8060020B8060020C0060020C006002025
S214404EC0C8060020C8060020D0060020D0060020D5
S214404ED0D8060020D8060020E0060020E006002085
S214404EE0E8060020E8060020F0060020F006002035
S214404EF0F8060020F80600200007002000070020E3
S214404F000807002008070020100700201007002090
S214404F101807002018070020200700202007002040
S214404F2028070020280700203007002030070020F0
S214404F3038070020380700204007002040070020A0
S214404F404807002048070020500700205007002050
S214404F505807002058070020600700206007002000
S214404F6068070020680700207007002070070020B0
S214404F707807002078070020800700208007002060
S214404F808807002088070020900700209007002010
S214404F909807002098070020A0070020A0070020C0
S214404FA0A8070020A8070020B0070020B007002070
S214404FB0B8070020B8070020C0070020C007002020
S214404FC0C8070020C8070020D0070020D0070020D0
S214404FD0D8070020D8070020E0070020E007002080
S214404FE0E8070020E8070020F0070020F007002030
S214404FF0F8070020F80700200008002000080020DE
S214405000080800200808002010080020100800208B
S214405010180800201808002020080020200800203B
S21440502028080020280800203008002030080020EB
S214405030380800203808002040080020400800209B
S214405040480800204808002050080020500800204B
S21440505058080020580800206008002060080020FB
S21440506068080020680800207008002070080020AB
S214405070780800207808002080080020800800205B
S214405080880800208808002090080020900800200B
S2144050909808002098080020A0080020A0080020BB
S2144050A0A8080020A8080020B0080020B00800206B
S2144050B0B8080020B8080020C0080020C00800201B
S2144050C0C8080020C8080020D0080020D0080020CB
S2144050D0D8080020D8080020E0080020E00800207B
S2144050E0E8080020E808002000000200FFFFFFFF5D
S2084050F05D41400099
S80440119911
