S0160000646973636F766572795F746573742E7372656317
S214400000503400209D024000990240009902400072
S214400010990240009902400099024000000000000A
S21440002000000000000000000000000099024000B0
S21440003099024000000000009902400099024000EA
S21440004099024000990240009902400099024000FF
S21440005099024000990240009902400099024000EF
S21440006099024000990240000000000099024000BA
S21440007099024000990240009902400099024000CF
S21440008099024000990240009902400099024000BF
S21440009099024000990240009902400099024000AF
S2144000A0990240009902400099024000990240009F
S2144000B0990240009902400099024000000000006A
S2144000C000000000000000000000000000000000EB
S2144000D000000000000000000000000000000000DB
S2144000E000000000000000000000000000000000CB
S2144000F000000000000000000000000099024000E0
S21440010099024000990240000000000000000000F4
S214400110000000000000000000000000000000009A
S214400120000000000000000000000000000000008A
S214400130000000000000000000000000000000007A
S214400140000000000000000010B5054C237833B9CD
S214400150044B13B10448AFF300800123237010BD55
S21440016030040020000000003C054000084B10B55D
S2144001701BB108490848AFF300800848036803B934
S21440018010BD074B002BFBD0BDE81040184700BF02
S21440019000000000340400203C0540003C054000C0
S2144001A00000000008B5064B9847064B9847064B9C
S2144001B04021DA6B12F0040F0CBF59631963F8E75D
S2144001C08D034000CD014000000E0E4038B54FF480
S2144001D00044194B5C600B20184DA8470C20A847DC
S2144001E0174B40221A61C3F8A0201A6304225A61B2
S2144001F0C3F8A0205A66C3F890205A655A62C3F8DE
S21440020080201A6F22F004021A675A6F22F0040206
S2144002105A6702221A631A61C3F8A02003F50073D6
S2144002204FF400521A631A61C3F8A0201C631C6185
S214400230C3F8A04038BD00BF50140E4045024000F1
S214400240000E0E4032281ED81F280CD8114B9A6933
S21440025001238340934318D0012303FA00F00D4B4B
S21440026018610020704720380A4BD3F80821012334
S214400270834093430BD0012303FA00F0054BC3F8A9
S2144002800001002070470120704700207047002082
S214400290704700BF00040E40FEE700BF00B583B0C5
S2144002A02C4B2D4A9A4203D02C4B2A4A9A4204D3CE
S2144002B02B4B2C4A9A420FD31AE026492A4B5B1AFC
S2144002C023F003030433244A134452F8040B41F842
S2144002D0040B9A42F9D1EBE7244B254AD21A22F076
S2144002E003021A44043B002143F8041B9342FBD10B
S2144002F0204A22F07F01204B9960EFF31083B3FA37
S21440030083F35B09019372B6BFF35F8F00211B4BEB
S214400310197001981A490B6843F470030B60BFF3D9
S2144003204F8FBFF36F8F28B10121144B1970BFF365
S2144003305F8F62B602F16042B2F5203F04D20E4AA9
S214400340936843F0005393600E4B98470E4B984784
S214400350FEE700BF000000203C05400030040020BF
S2144003604C040020300400202F04002034040020D9
S2144003704F0400200000400000ED00E00000002098
S21440038088ED00E0D5034000A50140000B4A0C4B29
S2144003901A600C4AA3F5C0639A621A46936E13F02D
S2144003A0020FFBD00222084B1A631A46936E13F0D4
S2144003B0080FFBD0054A064B1A6070470008000439
S2144003C0000A0E40013F4E0E00040E40000E270766
S2144003D00400002070B50F4E0F4D761BB61018BFA8
S2144003E0002405D0013455F8043B9847A642F9D17D
S2144003F00A4E0B4D761B00F08FF8B61018BF00243F
S21440040006D0013455F8043B9847A642F9D170BD52
S21440041070BD00BF24054000240540002C05400068
S21440042024054000024B13B1024800F005B870475F
S2144004300000000045044000002301461A461846C6
S21440044000F014B838B5074D074C2C1BA41005D047
S214400450013C55F8043D9847002CF9D1BDE838409A
S21440046000F064B83C054000380540002DE9F047F0
S214400470254C2568D5F84841064688469246994612
S214400480C4B360681F2817DC431C76B104EB8005B4
S2144004900122C5F888A0D4F8881182401143022E64
S2144004A0C4F88811C5F808911ED00230636044F83D
S2144004B020800020BDE8F087144B03B34FF4C8708B
S2144004C0AFF300800446D0B1D5F84831002780E825
S2144004D08800C5F8484138460123C4F88871C4F8F6
S2144004E08C71002EE1D0D1E7D4F88C110A43C4F8C1
S2144004F08C21DAE705F5A674C5F84841C1E74FF008
S214400500FF30BDE8F08700BF140540000000000043
S2144005104300000008000020F8B500BFF8BC08BC47
S2144005209E467047250440006D014000F8B500BF68
S210400530F8BC08BC9E46704749014000DD
S21440053C0100000000127A0000000000F4020020C7
S21440054C5C030020C40300200000000000000000F4
S21440055C000000000000000000000000000000004A
S21440056C00000000000000000000000010054000E5
S21440057C000000000000000000000000000000002A
S21440058C000000000000000000000000000000001A
S21440059C000000000000000000000000000000000A
S2144005AC00000000000000000000000000000000FA
S2144005BC00000000000000000000000000000000EA
S2144005CC00000000000000000000000000000000DA
S2144005DC00000000000000000000000000000000CA
S2144005EC01000000000000000E33CDAB34126DE667
S2144005FCECDE05000B0000000000000000000000D0
S21440060C0000000000000000000000000000000099
S21440061C0000000000000000000000000000000089
S21440062C0000000000000000000000000000000079
S21440063C0000000000000000000000000000000069
S80440029D1C
